:020000040800F2
:10000000B8160020890100081D1900081F190008F2
:1000100023190008271900082B1900080000000008
:100020000000000000000000000000002F19000880
:1000300031190008000000003319000835190008C4
:10004000A3010008A3010008A3010008A301000800
:10005000A3010008A3010008A3010008A3010008F0
:10006000A3010008A3010008A3010008A3010008E0
:10007000A3010008A3010008A3010008A3010008D0
:10008000A3010008A3010008A3010008A3010008C0
:10009000A3010008A3010008A3010008A3010008B0
:1000A000A3010008A3010008A3010008A3010008A0
:1000B000A3010008A3010008A3010008A301000890
:1000C000A3010008A3010008A3010008A301000880
:1000D000A3010008A30100087F180008A30100087D
:1000E000A3010008A3010008A301000800F002F822
:1000F00000F03AF80AA090E8000C82448344AAF188
:100100000107DA4501D100F02FF8AFF2090EBAE885
:100110000F0013F0010F18BFFB1A43F0010318473B
:100120002033000040330000103A24BF78C878C163
:10013000FAD8520724BF30C830C144BF04680C60ED
:10014000704700000023002400250026103A28BF35
:1001500078C1FBD8520728BF30C148BF0B60704739
:100160001FB51FBD10B510BD02F047F81146FFF7CF
:10017000F7FF01F071FA02F065F803B4FFF7F2FF40
:1001800003BC02F06DF800000948804709480047A9
:10019000FEE7FEE7FEE7FEE7FEE7FEE7FEE7FEE737
:1001A000FEE7FEE704480549054A064B7047000094
:1001B000A7020008ED000008B8100020B8160020C3
:1001C000B8120020B81200200CB500200190009059
:1001D0006C48006840F480306A49086000BF694894
:1001E000006800F4003000900198401C01900098D5
:1001F00018B90198B0F5A06FF1D16248006800F419
:10020000003010B10120009001E000200090009823
:10021000012843D15C48006840F010005A4908604A
:100220000846006820F0030008600846006840F0B7
:1002300002000860534840685249486008464068D8
:1002400048600846406840F480604860084640685E
:1002500020F47C1048600846406840F4E81048608C
:100260000846006840F08070086000BF454800689C
:1002700000F000700028F9D04248406820F00300E8
:10028000404948600846406840F00200486000BFAE
:100290003C48406800F00C000828F9D10CBD10B5AE
:1002A000FFF792FF10BD10B53648006840F001001E
:1002B000344908600846406834490840314948607C
:1002C00008460068324908402E4908600846006820
:1002D00020F4802008600846406820F4FE00486052
:1002E0004FF41F008860FFF7DAFF4FF000602949E4
:1002F000086010BD10B5002100200022214B5B6872
:1003000003F00C0121B1042906D0082928D107E007
:10031000214B224C236027E01F4B204C236023E01D
:10032000184B5B6803F47010164B5B6803F4803263
:10033000022303EB904022B9194B4343174C23602F
:100340000DE0104B5B6803F4003323B1144B4343BF
:10035000124C236003E0104B4343104C236003E036
:100360000D4B0E4C236000BF00BF064B5B68C3F310
:1003700003130C4CE15C094B1B68CB40074C23601A
:1003800010BD000000100240002002400000FFF8F5
:10039000FFFFF6FE08ED00E000127A0000000020EA
:1003A00000093D0004000020DF48006840F0010023
:1003B000DD49086008464068DC490840DA49486081
:1003C00008460068DA490840D749086008460068CE
:1003D00020F4802008600846406820F4FE00486051
:1003E0004FF41F0088607047CF49096821F48031BD
:1003F000CD4A11601146096821F480211160B0F5E1
:10040000803F03D0B0F5802F0ED106E0C6490968C1
:1004100041F48031C44A116007E0C349096841F4DE
:10042000A021C14A116000E000BF00BF704710B5B5
:1004300001460022002300204A11012A02D1BA4CB1
:10044000236806E0022A02D1B74C236A01E0B64CC9
:10045000636A01F01F02012494401C400CB101208A
:1004600000E0002010BD38B50020009000240025D9
:1004700000BF3120FFF7DBFF05460098401C0090CD
:100480000098B0F5A06F01D0002DF2D03120FFF719
:10049000CEFF08B1012400E00024204638BD01460B
:1004A0000020A14A106820F0F80040EAC100106066
:1004B0007047A04908607047024600209A4B586870
:1004C00020F47C1042EA01031843974B58607047B0
:1004D00098490866704701460020934A506820F00A
:1004E00003000843506070478F48406800F00C00DC
:1004F0007047014600208C4A506820F0F000084305
:100500005060704701460020874A506820F4E06040
:1005100008435060704701460020834A506820F429
:10052000605040EAC1005060704729B17E4A527A5B
:1005300002437D4B5A7204E07B4A527A82437A4BE3
:100540005A7270477B49D8310860704701460020D5
:10055000754A506820F440400843506070470021BD
:10056000714A20321170704A82F82010012802D09E
:1005700004280AD104E001216B4A2032117005E001
:100580000521694A2032117000E000BF00BF7047AA
:100590006949086070476449096A0143624A116207
:1005A0007047654944390860704730B50021002222
:1005B000002400235C4D6D6805F00C0121B1042975
:1005C00005D0082923D105E05C4D056022E05B4D94
:1005D00005601FE0544D6D6805F47012524D6D6852
:1005E00005F48034022505EB92421CB9544D554365
:1005F00005600BE04C4D6D6805F400351DB1504DA4
:100600005543056002E04D4D5543056002E04B4DFA
:10061000056000BF00BF444D6D6805F0F001090999
:10062000484D6B5C0568DD4045603F4D6D6805F4E5
:10063000E061090A434D6B5C4568DD4085603A4DD9
:100640006D6805F46051C90A3E4D6B5C4568DD403C
:10065000C560354D6D6805F44041890B3A4D6B5CC2
:10066000C568B5FBF3F5056130BD29B12E4A526965
:1006700002432D4B5A6104E02B4A526982432A4BB4
:100680005A61704729B1284A92690243264B9A6100
:1006900004E0254A92698243234B9A61704729B14D
:1006A000214AD2690243204BDA6104E01E4AD26932
:1006B00082431D4BDA61704729B11B4AD26802435D
:1006C000194BDA6004E0184AD2688243164BDA60AC
:1006D000704729B1144A12690243134B1A6104E0AE
:1006E000114A12698243104B1A617047124940390E
:1006F000086070470F49C86470470B49C87170475C
:100700000948406A40F080700749486270470146D6
:100710000020054A92680A400AB1012000E000204A
:100720007047014988727047001002400000FFF8CE
:10073000FFFFF6FE000042428004424200127A00AF
:1007400000093D00140000202400002010B50446DC
:10075000CC48844208D101210420FFF7ADFF0021DD
:100760000420FFF7A9FF46E0C748844208D10121D1
:100770000820FFF7A1FF00210820FFF79DFF3AE0C6
:10078000C248844208D101211020FFF795FF0021C3
:100790001020FFF791FF2EE0BD48844208D10121CF
:1007A0002020FFF789FF00212020FFF785FF22E0AE
:1007B000B848844208D101214020FFF77DFF002185
:1007C0004020FFF779FF16E0B348844208D10121A9
:1007D0008020FFF771FF00218020FFF76DFF0AE006
:1007E000AE48844207D101218015FFF765FF002143
:1007F000A015FFF761FF10BD10B501210846FFF7F6
:100800005BFF00210120FFF757FF10BD2DE9F041EC
:10081000024600250026002000230024002791F82E
:1008200003C00CF00F0591F803C00CF0100CBCF1E4
:10083000000F03D091F802C04CEA050591F800C002
:10084000BCF1000F31D0146800202BE04FF0010CF8
:100850000CFA00F3B1F800C00CEA03069E4220D166
:1008600083004FF00F0C0CFA03F7BC4305FA03FCAE
:100870004CEA040491F803C0BCF1280F06D14FF0F4
:10088000010C0CFA00FCC2F814C00AE091F803C095
:10089000BCF1480F05D14FF0010C0CFA00FCC2F876
:1008A00010C0401C0828D1D31460B1F800C0BCF1BE
:1008B000FF0F34DD546800202EE000F1080C4FF0EB
:1008C000010808FA0CF3B1F800C00CEA03069E42D6
:1008D00021D183004FF00F0C0CFA03F7BC4305FA4B
:1008E00003FC4CEA040491F803C0BCF1280F05D1C5
:1008F00000F1080C08FA0CF8C2F8148091F803C053
:10090000BCF1480F07D100F1080C4FF0010808FABC
:100910000CF8C2F81080401C0828CED35460BDE803
:10092000F0814FF6FF710180022181700421C170B6
:1009300070470246002093680B400BB1012000E095
:10094000002070470146886880B270470246002048
:10095000D3680B400BB1012000E000207047014636
:10096000C86880B2704701617047416170470AB141
:10097000016100E041617047C16070474FF480320F
:100980000A4382618161826182698269704702469D
:100990000020434B18684FF68073184040EA02105D
:1009A00008433F4B186070473E49C8617047F0B537
:1009B0000A46002300240021002500F00046B6F17D
:1009C000004F02D1364EF16901E0354E7168C0F337
:1009D000034583B200F44016B6F5401F08D121F05C
:1009E00070612F4E766826F070662D4F7E6012E0A3
:1009F00000F48016B6F5801F06D1032606FA05F42A
:100A0000A14341F0706106E0460D360103FA06F697
:100A1000B14341F0706122B1460D360103FA06F68A
:100A2000314300F00046B6F1004F02D11C4EF16197
:100A300001E01B4E7160F0BD30B500228B071C0F2A
:100A40000F2303FA04F2164B08338C1053F82430AA
:100A50009343134C08348D1044F8253023468C10F2
:100A600053F824308C07240F00FA04F423430C4C71
:100A700008348D1044F8253030BD0A49DC31086057
:100A80007047000000080140000C014000100140C8
:100A90000014014000180140001C014000200140EA
:100AA000000001400000204201684FF6FE72114034
:100AB00001600021016041608160C1608D49884210
:100AC00008D18C490839496841F00F01894A083A30
:100AD00051608AE087491431884208D18549083934
:100AE000496841F0F001834A083A51607DE081494C
:100AF0002831884208D17F490839496841F470613A
:100B00007C4A083A516070E07A493C31884208D109
:100B100078490839496841F47041764A083A516089
:100B200063E074495031884208D1724908394968F4
:100B300041F470216F4A083A516056E06D496431C2
:100B4000884208D16B490839496841F47001694A03
:100B5000083A516049E067497831884208D16549CF
:100B60000839496841F07061624A083A51603CE0D6
:100B70006149884206D1011F096841F00F01021F37
:100B8000116032E05C491431884208D15A49091F8A
:100B9000096841F0F001584A121F116025E05649DA
:100BA0002831884208D15449091F096841F470610D
:100BB000514A121F116018E04F493C31884208D158
:100BC0004D49091F096841F470414B4A121F1160D9
:100BD0000BE049495031884207D14749091F09684C
:100BE00041F47021444A121F1160704710B5002271
:100BF000026847F6F0739A430C6A8B6823430C69CA
:100C000023434C6923438C692343CC6923434C6AB7
:100C100023438C6A23431A430260CB6843600B680A
:100C200083604B68C36010BD00210160416081603A
:100C3000C160016141618161C161016241628162A2
:100C4000704721B1026842F00102026004E00268CC
:100C50004FF6FE731A40026070471AB103680B43E7
:100C6000036002E003688B43036070474160704794
:100C70000146486880B2704701460020002201F01A
:100C800080531BB11C4B083B1A6802E0194B083B10
:100C90001A6802EA01030BB1012000E0002070474E
:100CA00000F0805119B11449091F086002E0114990
:100CB00008394860704701460020002201F0805347
:100CC0001BB10D4B083B1A6802E00A4B083B1A683F
:100CD00002EA01030BB1012000E00020704700F0A0
:100CE000805119B10449091F086002E0014908391F
:100CF00048607047080002400804024010B50446EE
:100D0000FB48844209D101218803FFF7D5FC00216B
:100D10004FF48040FFF7D0FC32E0F648844209D11E
:100D200001214804FFF7D5FC00214FF40030FFF704
:100D3000D0FC25E0F048844209D101218804FFF766
:100D4000C8FC00214FF48020FFF7C3FC18E0EB48FB
:100D5000844209D10121C804FFF7BBFC00214FF4F4
:100D60000020FFF7B6FC0BE0E548844208D10121E2
:100D70000805FFF7AEFC00214FF48010FFF7A9FC37
:100D800010BD2DE9F04786B005460E460024A24668
:100D900000BFA1460027B08900B100BF2F462C8AB2
:100DA0004CF6FF700440F08804432C82AC894EF668
:100DB000F3100440B0883189084371890843044323
:100DC000AC81AC8A4FF6FF400440B0890443AC824A
:100DD00001A8FFF7EAFBC648874202D1DDF810A060
:100DE00001E0DDF80CA0A88900F4004040B10AEB56
:100DF000CA0000EB0A1031684900B0FBF1F807E0C7
:100E00000AEBCA0000EB0A1031688900B0FBF1F868
:100E10006420B8FBF0F004012009642101FB108973
:100E2000A88900F4004040B1322000EBC900B0FBBB
:100E3000F1F000F00700044308E0322000EB091055
:100E40006421B0FBF1F000F00F0004432C8106B0E8
:100E5000BDE8F0874FF41651016000218180C18008
:100E600001810C21418100218181704710B502462A
:100E70000020108A4FF2FF0318400B884C88234350
:100E80008C882343CC8823431843108210BD002153
:100E9000018041808180C180704721B1828942F404
:100EA0000052828104E082894DF6FF731A408281EC
:100EB0007047F0B50346002400260025002040F6C8
:100EC0006A17B94200D100BF1846C1F3421401F0BD
:100ED0001F06012707FA06F5012C01D10C3004E0AA
:100EE000022C01D1103000E014301AB107682F43F2
:100EF000076002E00768AF430760F0BD1AB1838A5C
:100F00000B43838202E0838A8B4383827047028A89
:100F10004FF6F0731A400282028A0A430282704737
:100F200082894FF2FF731A40828182890A4382814B
:100F3000704721B1828942F00202828104E08289F5
:100F40004FF6FD731A4082817047028A4FF6DF73B5
:100F50001A400282028A0A430282704721B1028A41
:100F600042F48042028204E0028A4BF6FF731A4088
:100F700002827047C1F30802828070470146888868
:100F8000C0F308007047818941F0010181817047F9
:100F9000028BD2B20283028B42EA012202837047A3
:100FA000028B02F47F420283028B0A430283704762
:100FB00021B1828A42F02002828204E0828A4FF6C6
:100FC000DF731A408282704721B1828A42F0100298
:100FD000828204E0828A4FF6EF731A408282704761
:100FE00021B1828A42F00802828204E0828A4FF6AE
:100FF000F7731A408282704721B1828942F400421D
:10100000828103E08289C2F30E028281704721B19E
:10101000828A42F40062828204E0828A4FF2FF7385
:101020001A4082827047828A4FF6FB731A4082828E
:10103000828A0A438282704721B1828A42F0020288
:10104000828204E0828A4FF6FD731A4082827047E2
:1010500002460020B1F5007F00D100BF13880B408D
:101060000BB1012000E00020704701F40072B2F5DE
:10107000007F00D100BFCA430280704770B50246AE
:10108000002400230025002040F66A16B14200D15A
:1010900000BFC1F3421501F01F03012606FA03F356
:1010A000012D02D19689334006E0022D02D1168A25
:1010B000334001E0968A33400C12012606FA04F40C
:1010C0001688344013B10CB1012000E0002070BD3F
:1010D00010B50022002340F66A14A14200D100BFDF
:1010E0000A1201249440A3B2DC43048010BD000026
:1010F000003801400044004000480040004C0040DF
:101100000050004031490143314A1160704770B5C9
:10111000002100230F22C47804B32D4C246804F46A
:10112000E064C4F5E064210AC1F10403CA404478D4
:1011300004FA03F18478144021430901254C067810
:10114000A155047804F01F050124AC4005786D1109
:10115000AD0005F1E025C5F8004109E0047804F090
:101160001F050124AC401C4D0678761145F8264039
:1011700070BD1A4A0A400243154B1B1F1A60704784
:1011800039B1134A121D12680243114B1B1D1A601C
:1011900006E00F4A121D126882430D4B1B1D1A6098
:1011A0007047042808D14FF0E021096941F004019B
:1011B0004FF0E022116107E04FF0E021096921F0D2
:1011C00004014FF0E0221161704700000000FA05B1
:1011D0000CED00E000E400E080E100E080FFFF1F94
:1011E000FE480088D8B9FE480088C0B1FC48008895
:1011F000801EFB490880FB480088401CF949088094
:10120000084600881F2847D1F4480088401CF3494D
:101210000880F4480088401EF24908803CE0F0480D
:101220000088D8B9EF480088C0B1EC480088401C5D
:10123000EA490880EB480088401EEA490880E748F0
:1012400000881F2828D1E6480088801CE4490880CF
:10125000E2480088401EE14908801DE0E14800881E
:10126000D0B9DE480088B8B1DD480088801CDC4970
:101270000880DA480088401ED8490880D84800888D
:101280003E2809D1D6480088801ED5490880D54817
:101290000088401CD3490880704770B5054600247B
:1012A0000021084600F09DFB00F07FFB00BF0FE02F
:1012B0004FF48070CC4908604000091D0860CB489D
:1012C000C56020200860091F086000010860641CD8
:1012D00044F2A0108442EBD3FA21002000F081FBFD
:1012E00000F063FB00240FE04FF48070BE490860FB
:1012F0004000091D0860BD48C56020200860091F26
:10130000086000010860641C44F2A0108442EBD322
:1013100070BD2DE9F0410446B0480078C002B049E4
:10132000098840EA4110AF490988084387B241F271
:1013300018584621002000F054FB00F036FB1FE057
:101340002578002619E04FF48070A7490860400016
:10135000091D086005F0800008B1F84300E0384638
:10136000A249C8602020A049091D0860091F086023
:10137000000108606806050E761C082EE3D3641C85
:10138000B8F10000A8F10108DAD1BDE8F0812DE93B
:10139000F84F044627464AF6C005B7F800804FF0DC
:1013A000000B4FF00009B878064682460834462103
:1013B000002000F016FB00F0F8FA00BFBBF1000FB0
:1013C0004DD12078012803D183464FF0080997E0DA
:1013D0002078022806D1641CB4F80090641C08F13F
:1013E000020801E094F80090F020B5FBF0F100FB5A
:1013F000115000B9B24616B14FF6FF7000E0002060
:1014000000901FE04FF48070774908604000091D8C
:10141000086076490098C86020207349091D08605B
:10142000091F0860000108606D1EF020B5FBF0F197
:1014300000FB115030B9564616B14FF6FF7000E070
:1014400000200090B9F10000A9F1010901D0002DA0
:10145000D8D10EB9012000E00020064650E0BBF1D3
:10146000010F4DD1207860B94FF0000B0026B14636
:10147000F020B5FBF0F100FB1150082840D2B24635
:101480003EE02078FF280DD14FF0000B01264FF0F1
:101490000009F020B5FBF0F100FB115008282FD215
:1014A000B2462DE026784FF0080922E0F020B5FB87
:1014B000F0F100FB115008B9C6F3C01A4FF4807068
:1014C000494908604000091D086006F0800010B11D
:1014D0004FF6FF7000E000204449C86020204249D8
:1014E000091D0860091F0860000108607006060EEB
:1014F0006D1EB9F10000A9F1010901D0002DD5D16F
:10150000641C08F101081DB1B8F1000F7FF456AF5B
:10151000BDE8F88F36480078C0430004000A33491C
:10152000C860042033490860091D0860704700B591
:101530002F48007800F07F0018B901202C4908706E
:1015400005E02B4800784006000E29490870FFF797
:10155000E1FF00BD00B587B001210846FFF785F81F
:1015600001210420FFF78EF801214804FFF797F8C6
:101570000420ADF8180018208DF81B0003208DF80A
:101580001A0006A91C48FFF741F90820ADF8180019
:1015900004208DF81B0006A91748FFF737F9032030
:1015A0008DF8160026208DF8140003208DF8150004
:1015B00001208DF8170005A8FFF7A9FD4FF4E120E1
:1015C00001900020ADF80800ADF80A00ADF80C005D
:1015D000ADF810000C20ADF80E000FE03C0000202C
:1015E0003E00002040000020100C0140001001408F
:1015F00042000020101401400008014001A9B24837
:10160000FFF7BFFB012240F22441AF48FFF751FC36
:10161000012240F22551AC48FFF74BFC0121AA48BA
:10162000FFF73BFC0A20A9490880012088700220AE
:101630000872C0204872A72088720A20A449088036
:101640000120A24988700220A1490872C020487276
:10165000A720887207B000BD08B59E4800684FF407
:101660007A72B0FBF2F1481EB0F1807F00D31BE02C
:10167000481E4FF0E022506150170F22002807DA71
:1016800013071F0E944B00F00F06361F9F5503E003
:1016900013071E0E914B1E5400BF00204FF0E02296
:1016A00090610720106100BFFFF754FF0A2000F08F
:1016B0005DF900F0C2F9642000F058F94FF4784069
:1016C00000F0E8FA4FF6FF7000F0EAFA4FF6FF700C
:1016D00000F093F90020FFF7E0FD01213420FEF730
:1016E000D1FF4FF6FF70ADF8000010208DF8030019
:1016F00003208DF8020069467948FFF787F8042037
:10170000ADF8000010208DF8030003208DF80200D2
:1017100069467448FFF77AF80220ADF800001020FF
:101720008DF8030003208DF8020069466E48FFF72C
:101730006DF81F206D49088000206D4908806D49B3
:101740000880002401256CE06B48006830B9002057
:101750006A4908706A4908606A4908606A4800680E
:1017600000285ED16648006866490968884203D24D
:1017700000206549086002E0282063490860FFF7FF
:101780002FFD02205849143108604FF47F4054491E
:10179000C8600420534910310860091D086057488B
:1017A000007890BB4FF47A7053490860574800782E
:1017B00008B9012000E0002054490870084600786C
:1017C00030B142485249086041485249086005E03A
:1017D0003F484F4908603D484E4908604848006806
:1017E0004FF47A71B0FBF1F03749091D08800120F0
:1017F0004249087046480068FFF7C9FDFFF797FEA9
:101800003F48006828303E490860CB2C02D94FF091
:10181000FF3501E004B901252C4402203249103182
:10182000086091E73849086000BF37490968002916
:10183000FBD1704710B53848C06E4FF6FE710840B6
:101840003549C866002240211F48FFF757FB002199
:1018500031486C30FFF7F5F94FF400602E49086706
:10186000012240211848FFF749FB2B48C06E40F089
:1018700001002949C86600202049087010BD12489F
:10188000008800F0100068B10F48001D0088214951
:10189000096808701F480068401C1E490860002045
:1018A000164908700848008800F0200050B106482A
:1018B000001D008817490968087016480068401C18
:1018C00014490860704700000044004054000020A4
:1018D000540800200000002018ED00E000E400E0C3
:1018E0000010014000140140000801403C000020AD
:1018F0003E000020400000202C000020300000208E
:101900004400002048000020280000203100002072
:10191000340000203800002000000240704700BF63
:10192000FEE700BFFEE700BFFEE700BFFEE770472F
:10193000704770470A48006820B109480068401E97
:10194000074908600748006820B106480068401E43
:101950000449086004480068401C03490860704757
:10196000280000202C00002048000020002107E073
:1019700042F6E06100BF0A1EA1F1010399B2FAD15B
:10198000021EA0F1010398B2F2D170474FF400712A
:10199000FE4A116049101160FD49C86020211160A4
:1019A000121F116009011160704700B52220FFF776
:1019B000EDFF00BD10B504460B462046FFF7E6FFDD
:1019C0004FF48070F149091F08604000091D08604C
:1019D000EF48C36020200860091F0860000108600C
:1019E00010BD30B504460D4621462020FFF7E2FF2A
:1019F00029462120FFF7DEFF30BD30B50446002523
:101A000000210846FFF7EDFFFFF7CFFF00BF10E012
:101A10004FF48070DD49091F08604000091D08600F
:101A2000DB48C46020200860091F086000010860CE
:101A30006D1CB5F5963FEBD330BD08B501211920DB
:101A4000FEF720FE4FF4E460ADF8000010208DF8A2
:101A5000030003208DF802006946CC481438FEF7D5
:101A6000D5FE4FF4E461C9481438FEF77CFF4FF609
:101A7000FF70ADF800006946C548FEF7C7FE4FF697
:101A8000FF71C348FEF76FFF3220FFF76FFF0121A0
:101A90000020FFF78FFF5020FFF768FF41F28F0112
:101AA000EC20FFF787FF41F23421EF20FFF782FFA0
:101AB0004FF480710120FFF77DFF4FF4E0610220B9
:101AC000FFF778FF4FF480710120FFF773FF4FF4A9
:101AD000E0610220FFF76EFF41F230010320FFF7C3
:101AE00069FF00210420FFF765FF40F2072108206D
:101AF000FFF760FF00210920FFF75CFF00210A20AB
:101B0000FFF758FF01210C20FFF754FF00210D20A3
:101B1000FFF750FF00210F20FFF74CFF002110209E
:101B2000FFF748FF07211120FFF744FF0021122093
:101B3000FFF740FF00211320FFF73CFF3220FFF7A3
:101B400015FF41F290511020FFF734FF40F227219A
:101B50001120FFF72FFF3220FFF708FF9C211220F2
:101B6000FFF728FF3220FFF701FF4FF4C851132081
:101B7000FFF720FF23212920FFF71CFF0E212B2038
:101B8000FFF718FF3220FFF7F1FE00212020FFF7BA
:101B900011FF40F23F112120FFF70CFF3220FFF729
:101BA000E5FE07213020FFF705FF40F207713120E5
:101BB000FFF700FF06213220FFF7FCFE40F2047120
:101BC0003520FFF7F7FE41F604713620FFF7F2FEED
:101BD00004213720FFF7EEFE00213820FFF7EAFE50
:101BE00040F206713920FFF7E5FE40F201713C201A
:101BF000FFF7E0FE0F213D20FFF7DCFE3220FFF76C
:101C0000B5FE00215020FFF7D5FEEF215120FFF750
:101C1000D1FE00215220FFF7CDFE40F23F115320AC
:101C2000FFF7C8FE4FF427416020FFF7C3FE0121F4
:101C30006120FFF7BFFE00216A20FFF7BBFE0021F5
:101C40008020FFF7B7FE00218120FFF7B3FE0021BF
:101C50008220FFF7AFFE00218320FFF7ABFE0021BB
:101C60008420FFF7A7FE00218520FFF7A3FE1021A7
:101C70009020FFF79FFE4FF4C0619220FFF79AFE7D
:101C800040F233110720FFF795FE4FF6FF70FFF784
:101C9000B4FE08BD01B5BDF800003E49088008BD8E
:101CA00001B5BDF800003C49088008BD30B50446C8
:101CB0000D46E0B22946FFF794FE2220FFF766FEAC
:101CC0004FF480703149091F08604000091D086009
:101CD000304800882E49C86020202C490860091F20
:101CE00008600001086030BD2DE9F04F04460E4643
:101CF00017460025A846A9462648B0F800B0A146D8
:101D000031462046FFF76DFE00BF26E037F815A0EC
:101D10004FF0000816E00AF0010018B11D48A0F8C5
:101D200000B003E01C4800881A4908803146484644
:101D3000FFF7BCFF4FEA6A0A09F1010000F0FF0952
:101D400008F10108B8F1100FE5D3A146701C86B266
:101D500031464846FFF745FE6D1C182DD6D30D4879
:101D6000A0F800B0BDE8F08F70B505460E461446E9
:101D7000A4F12000C4B204EB4401084B03EB0112B0
:101D8000F0B22946FFF7B0FF70BD0000140C01400F
:101D90000010014050000020520000206E22000878
:101DA000F0B507460C460025002609E022783146AA
:101DB0003846FFF7D9FF06F1100086B2641C6D1C8F
:101DC000207808B10F2DF1D3F0BD10B50446F8A16D
:101DD0002046FFF7E5FF10BDF0B504460D46164658
:101DE0001F46B44206DBA01B401C81B25020FFF707
:101DF000E1FD03E000215020FFF7DCFD21465120EA
:101E0000FFF7D8FDBD4206DBE81B401C81B2522023
:101E1000FFF7D0FD03E000215220FFF7CBFD29465C
:101E20005320FFF7C7FD29462046FFF7DAFDF0BD36
:101E300000B54FF4A073F022591EEF20FFF7CCFF3E
:101E400041F218010320FFF7B5FD00BD4FF480718A
:101E5000DD4A11604900121D1160DC49C860202173
:101E60001160121F11600901116070472DE9F041E6
:101E70000646884615461F46002441463046FFF771
:101E8000B0FD5FB9FFF791FD00BF04E0D0480088C6
:101E9000FFF7DCFF641CAC42F8D310E000240CE038
:101EA000FFF783FDCA480088FFF7D0FF701CC6B259
:101EB00041463046FFF795FD641CAC42F0D3BDE8C7
:101EC000F081F0B505460E4617461C460023224613
:101ED00031462846FFF7CAFFE919C8B20023224657
:101EE0003146FFF7C3FF01233A4631462846FFF744
:101EF000BDFF301B401C81B201233A462846FFF744
:101F0000B5FFF0BD2DE9F04306460F46904603208D
:101F1000A0EB4809002445466EE07A1991B23219C7
:101F2000D0B2FFF75EFDFFF740FDA9480088FFF73C
:101F30008DFF7A1B91B23219D0B2FFF752FDFFF735
:101F400034FDA3480088FFF781FF7A1991B2321B54
:101F5000D0B2FFF746FDFFF728FD9D480088FFF748
:101F600075FF7A1B91B2321BD0B2FFF73AFDFFF733
:101F70001CFD97480088FFF769FF3A1991B2721962
:101F8000D0B2FFF72EFDFFF710FD91480088FFF754
:101F90005DFF3A1B91B27219D0B2FFF722FDFFF735
:101FA00004FD8B480088FFF751FF3A1991B2721B6C
:101FB000D0B2FFF716FDFFF7F8FC85480088FFF761
:101FC00045FF3A1B91B2721BD0B2FFF70AFDFFF733
:101FD000ECFC7F480088FFF739FFB9F1000F04DA05
:101FE000062000EB8400814405E0601B0A2101EB20
:101FF000800081446D1E641CAC428ED9BDE8F08324
:1020000070B506460024002540F23F110020FFF77E
:10201000E8FCFFF7CAFC00BF14E000250FE056F80B
:1020200024000121A940084020B96A480088FFF730
:102030000DFF03E066480088FFF708FF6D1C202DA8
:10204000EDD3641CB4F5166FE7D370BD70B50446CC
:10205000002500266688A08846EA00466589A08992
:1020600045EA0045701B46082C4441F20801032054
:10207000FFF7A0FCFFF799FC002504E02088FFF79C
:10208000E5FEA41C6D1CB542F8D341F218010320F3
:10209000FFF790FC70BD08B54FF6FF70ADF800007B
:1020A00003208DF8020010208DF803006946474890
:1020B000FEF7ACFB08BD08B54FF6FF70ADF80000A9
:1020C00003208DF8020048208DF8030069463F4840
:1020D000FEF79CFB08BD70B504464FF400703A490A
:1020E000091D0860401008602020091F086037485B
:1020F000C4602020091D0860091F0860C000086036
:10210000FFF7D9FF4FF480602F49091D08602F4861
:10211000806885B20815091F0860FFF7BCFF4FF4FF
:10212000007029490860284670BD10B54FF4007052
:102130002549091D0860401008602020091F08601B
:1021400022202249C86020201F49091D0860091F5C
:102150000860C0000860FFF7AEFF4FF480601A49C6
:10216000091D08601948806884B20815091F0860B5
:10217000FFF791FF4FF4007013490860204610BD2F
:10218000704700B540F273110720FFF713FC00BD44
:1021900000B500210720FFF70DFC00BD30B5054656
:1021A00028210020FFF71DFCFFF7FFFB00241DE0A6
:1021B000202020202020202020202020202020201F
:1021C0002020202000000000100C014000100140E1
:1021D000500000205200002015F814206100491C16
:1021E000695C42EA0120FFF731FE641CB4F5614FDF
:1021F000F2D330BD704770477047754600F02CF839
:10220000AE4605006946534620F00700854618B0E3
:1022100020B5FDF7C7FFBDE820404FF000064FF0A6
:1022200000074FF000084FF0000B21F00701AC460B
:10223000ACE8C009ACE8C009ACE8C009ACE8C0092A
:102240008D46704710B50446AFF300802046BDE8C8
:102250001040FDF792BF0000004870475410002066
:1022600001491820ABBEFEE72600020070470000BF
:10227000000000000000000000000000000000005E
:10228000000000000000000000000000000000004E
:10229000000000000000000000000000000000003E
:1022A0008001800180018001800180018001800126
:1022B0008001800180018001800100000000800118
:1022C000800100000000000000000000000000008D
:1022D0000000CC00CC00CC00CC00CC00CC00000036
:1022E00000000000000000000000000000000000EE
:1022F00000000000000000000000000000000000DE
:1023000000000000000000000000600C600C600C89
:1023100030063006FE1FFE1F300638071803FE1F6A
:10232000FE1F180318038C018C018C0100000000B3
:102330008000E003F80F9C0E8C1C8C188C00980019
:10234000F801E007800E801C8C188C189C18B80CC3
:10235000F00FE0038000800000000000000000009B
:10236000000000000E181B0C110C110611061103C1
:1023700011039B018E01C038C06C6044604430443E
:1023800030441844186C0C380000000000000000B5
:10239000E001F0033807180618063003F001F000DA
:1023A000F8009C310E33061E061C061C063FFC730B
:1023B000F02100000000000000000000000000000C
:1023C00000000C000C000C000C000C000C000000C5
:1023D00000000000000000000000000000000000FD
:1023E00000000000000000000000000000000000ED
:1023F000000200038001C000C000600060003000E7
:10240000300030003000300030003000300060001C
:102410006000C000C0008001000300020000000056
:1024200020006000C000800180010003000300065E
:10243000000600060006000600060006000600036F
:10244000000380018001C000600020000000000047
:1024500000000000000000000000C000C000D8061E
:10246000F807E0013003380700000000000000001A
:10247000000000000000000000000000000000005C
:1024800000000000000000000000800180018001C9
:1024900080018001FC3FFC3F8001800180018001C0
:1024A00080010000000000000000000000000000AB
:1024B000000000000000000000000000000000001C
:1024C000000000000000000000000000000000000C
:1024D0008001800100010001800000000000000078
:1024E00000000000000000000000000000000000EC
:1024F000000000000000E007E0070000000000000E
:1025000000000000000000000000000000000000CB
:1025100000000000000000000000000000000000BB
:1025200000000000000000000000000000000000AB
:10253000C000C0000000000000000000000000001B
:10254000000C000C00060006000600030003000358
:102550008003800180018001C000C000C0006000D5
:10256000600000000000000000000000000000000B
:10257000E003F007380E180C0C180C180C180C1887
:102580000C180C180C180C180C18180C380EF00736
:10259000E003000000000000000000000000000058
:1025A00000018001C001F0019801880180018001D3
:1025B0008001800180018001800180018001800113
:1025C000800100000000000000000000000000008A
:1025D000E003F80F180C0C180C1800180018000C69
:1025E000000600038001C000600030001800FC1FDE
:1025F000FC1F0000000000000000000000000000C0
:10260000E001F807180E0C0C0C0C000C0006C003BF
:10261000C007000C001800180C180C18180CF8074C
:10262000E0030000000000000000000000000000C7
:10263000000C000E000F000F800DC00C600C600C31
:10264000300C180C0C0CFC3FFC3F000C000C000C78
:10265000000C00000000000000000000000000006E
:10266000F80FF80F180018000C00EC03FC071C0E04
:10267000001C0018001800180C181C0C180EF80785
:10268000E003000000000000000000000000000067
:10269000C007F00F381C181818000C00CC03EC0F02
:1026A0003C0E1C1C0C180C180C18181C380EF007CB
:1026B000E003000000000000000000000000000037
:1026C000FC1FFC1F000C00060006000380038001B5
:1026D000C001C000E0006000600070003000300009
:1026E00030000000000000000000000000000000BA
:1026F000E003F007380E180C180C180C3806F00719
:10270000F007180C0C180C180C180C18380CF80FD3
:10271000E0030000000000000000000000000000D6
:10272000E003F007380E1C0C0C180C180C181C1CBD
:10273000381EF81BE0190018000C000C1C0EF807DE
:10274000F001000000000000000000000000000098
:102750000000000000000000000080018001000077
:1027600000000000000000000000000000008001E8
:1027700080010000000000000000000000000000D8
:102780000000000000000000000080018001000047
:1027900000000000000000000000000000008001B8
:1027A0008001000100018000000000000000000026
:1027B0000000000000000000000000000000001009
:1027C000001C800FE003F8001800F800E003800F01
:1027D000001C0010000000000000000000000000CD
:1027E0000000000000000000000000000000F81FD2
:1027F000000000000000F81F0000000000000000C2
:1028000000000000000000000000000000000000C8
:1028100000000000000000000000000000000800B0
:102820003800F001C007001F0018001FC007F001AA
:102830003800080000000000000000000000000058
:10284000E003F80F180C0C180C180018000C000608
:1028500000038001C000C000C00000000000C000F4
:10286000C0000000000000000000000000000000A8
:102870000000E00718180420C229224A1144094424
:102880000944094409221113E20C024004201818DB
:10289000E007000000000000000000000000000051
:1028A00080038003C006C006C006600C600C3018B0
:1028B00030183018F83FF83F1C700C600C6006C0F0
:1028C00006C0000000000000000000000000000042
:1028D000FC03FC0F0C0C0C180C180C180C0CFC074F
:1028E000FC0F0C180C300C300C300C300C18FC1F8A
:1028F000FC070000000000000000000000000000D5
:10290000C007F01F38381C300C7006600600060047
:10291000060006000600060006600C701C30F01F62
:10292000E0070000000000000000000000000000C0
:10293000FE03FE0F060E0618061806300630063097
:10294000063006300630063006180618060EFE0F52
:10295000FE03000000000000000000000000000076
:10296000FC3FFC3F0C000C000C000C000C00FC1F9A
:10297000FC1F0C000C000C000C000C000C00FC3FB9
:10298000FC3F00000000000000000000000000000C
:10299000F83FF83F18001800180018001800F81F3A
:1029A000F81F180018001800180018001800180068
:1029B00018000000000000000000000000000000FF
:1029C000E00FF83F3C780E6006E007C0030003000C
:1029D00003FE03FE03C007C006C00EC03CF0F83F74
:1029E000E00F0000000000000000000000000000F8
:1029F0000C300C300C300C300C300C300C30FC3FF8
:102A0000FC3F0C300C300C300C300C300C300C30E7
:102A10000C3000000000000000000000000000007A
:102A2000800180018001800180018001800180019E
:102A3000800180018001800180018001800180018E
:102A40008001000000000000000000000000000005
:102A50000006000600060006000600060006000646
:102A60000006000600060006180618063807F003E0
:102A7000E001000000000000000000000000000075
:102A800006300618060C060606038601C600660018
:102A90007600DE008E0106030606060C06180630D8
:102AA00006600000000000000000000000000000C0
:102AB0001800180018001800180018001800180056
:102AC0001800180018001800180018001800F81F47
:102AD000F81F0000000000000000000000000000DF
:102AE0000EE01EF01EF01EF036D836D836D836D896
:102AF00066CC66CC66CCC6C6C6C6C6C6C6C686C3C7
:102B000086C300000000000000000000000000007C
:102B10000C301C303C303C306C306C30CC30CC3025
:102B20008C310C330C330C360C360C3C0C3C0C3812
:102B30000C30000000000000000000000000000059
:102B4000E007F81F1C380E70066003C003C003C006
:102B500003C003C003C003C006600E701C38F81F1A
:102B6000E00700000000000000000000000000007E
:102B7000FC0FFC1F0C380C300C300C300C300C18D7
:102B8000FC1FFC070C000C000C000C000C000C00DF
:102B90000C00000000000000000000000000000029
:102BA000E007F81F1C380E70066003E003C003C086
:102BB00003C003C003C007E006630E3F1C3CF83FA0
:102BC000E0F700C00000000000000000000000006E
:102BD000FE0FFE1F06380630063006300638FE1F90
:102BE000FE0706030606060C061806180630063011
:102BF000066000000000000000000000000000006F
:102C0000E003F80F1C0C0C180C180C001C00F80347
:102C1000E00F001E0038063006300E301C1CF80F86
:102C2000E0070000000000000000000000000000BD
:102C3000FE7FFE7F80018001800180018001800194
:102C4000800180018001800180018001800180017C
:102C500080010000000000000000000000000000F3
:102C60000C300C300C300C300C300C300C300C3084
:102C70000C300C300C300C300C300C301818F81FA5
:102C8000E00700000000000000000000000000005D
:102C900003600630063006300C180C180C18180C9F
:102CA000180C380E30063006700760036003C00150
:102CB000C001000000000000000000000000000053
:102CC0000360C361C361C3616633663366336633D1
:102CD000663366336C1B6C1B6C1B2C1A3C1E380E47
:102CE000380E00000000000000000000000000009E
:102CF0000FE00C7018303018700C600EC0078003A5
:102D00008003C003E006700C301C18180C300E60F5
:102D100007E00000000000000000000000000000CC
:102D200003C006600C301C383818300C6006E00711
:102D3000C003800180018001800180018001800149
:102D40008001000000000000000000000000000002
:102D5000FC7FFC7F006000300018000C00060003C0
:102D60008001C0006000300018000C000600FE7FEB
:102D7000FE7F0000000000000000000000000000D6
:102D8000E003E0036000600060006000600060003D
:102D90006000600060006000600060006000600033
:102DA0006000600060006000E003E00300000000DD
:102DB00030003000600060006000C000C000C00053
:102DC000C0018001800180010003000300030006B0
:102DD00000060000000000000000000000000000ED
:102DE000E003E0030003000300030003000300030B
:102DF00000030003000300030003000300030003BB
:102E00000003000300030003E003E00300000000F0
:102E10000000C001C001600360036003300630069B
:102E2000180C180C0000000000000000000000005A
:102E30000000000000000000000000000000000092
:102E40000000000000000000000000000000000082
:102E50000000000000000000000000000000000072
:102E6000FFFFFFFF00000000000000000000000066
:102E70000C000C000C000C000C000C00000000000A
:102E80000000000000000000000000000000000042
:102E90000000000000000000000000000000000032
:102EA00000000000000000000000F003F8071C0C08
:102EB0000C0C000FF00FF80C0C0C0C0C1C0FF80F86
:102EC000F0180000000000000000000000000000FA
:102ED00018001800180018001800D803F80F380C54
:102EE000181818181818181818181818380CF80F77
:102EF000D8030000000000000000000000000000F7
:102F000000000000000000000000C003F007300EC9
:102F1000180C1800180018001800180C300EF007D4
:102F2000C0030000000000000000000000000000DE
:102F300000180018001800180018C01BF01F301CE3
:102F4000181818181818181818181818301CF01F06
:102F5000C01B000000000000000000000000000096
:102F600000000000000000000000C003F00F300C63
:102F70001818F81FF81F180018003818301CF00F28
:102F8000C00700000000000000000000000000007A
:102F9000800FC00FC000C000C000F007F007C000E5
:102FA000C000C000C000C000C000C000C000C00021
:102FB000C000000000000000000000000000000051
:102FC00000000000000000000000E00DF80F180EE7
:102FD0000C0C0C0C0C0C0C0C0C0C0C0C180EF80F34
:102FE000E00D000C0C0C1C06F807F00100000000BE
:102FF00018001800180018001800D807F80F381C1F
:103000001818181818181818181818181818181840
:103010001818000000000000000000000000000080
:10302000C000C000000000000000C000C000C000E0
:10303000C000C000C000C000C000C000C000C00090
:10304000C0000000000000000000000000000000C0
:10305000C000C000000000000000C000C000C000B0
:10306000C000C000C000C000C000C000C000C00060
:10307000C000C000C000C000F800780000000000E0
:103080000C000C000C000C000C000C0C0C060C03CB
:103090008C01CC006C00FC009C018C030C030C0622
:1030A0000C0C000000000000000000000000000008
:1030B000C000C000C000C000C000C000C000C00010
:1030C000C000C000C000C000C000C000C000C00000
:1030D000C000000000000000000000000000000030
:1030E000000000000000000000007C3CFF7EC7E301
:1030F00083C183C183C183C183C183C183C183C1B0
:1031000083C100000000000000000000000000007B
:10311000000000000000000000009807F80F381CB5
:10312000181818181818181818181818181818181F
:10313000181800000000000000000000000000005F
:1031400000000000000000000000C003F00F300C81
:10315000181818181818181818181818300CF00F14
:10316000C00300000000000000000000000000009C
:1031700000000000000000000000D803F80F380C29
:10318000181818181818181818181818380CF80FD4
:10319000D8031800180018001800180000000000DC
:1031A00000000000000000000000C01BF01F301CE9
:1031B000181818181818181818181818301CF01F94
:1031C000C01B0018001800180018001800000000AC
:1031D00000000000000000000000B007F0037000D5
:1031E000300030003000300030003000300030005F
:1031F000300000000000000000000000000000009F
:1032000000000000000000000000E003F003380EA2
:10321000180C3800F003C007000C180C380EF0072B
:10322000E0030000000000000000000000000000BB
:1032300000008000C000C000C000F007F007C00020
:10324000C000C000C000C000C000C000C000C00777
:1032500080070000000000000000000000000000E7
:1032600000000000000000000000181818181818CE
:10327000181818181818181818181818381CF01FCB
:10328000E019000000000000000000000000000045
:10329000000000000000000000000C18180C180CC2
:1032A000180C300630063006600360036003C0016E
:1032B000C00100000000000000000000000000004D
:1032C00000000000000000000000C141C141C361D6
:1032D0006363636363633636363636361C1C1C1CE8
:1032E0001C1C0000000000000000000000000000A6
:1032F000000000000000000000001C38381C300CEA
:10330000600660036003600360036006300C381CD5
:103310001C38000000000000000000000000000059
:1033200000000000000000000000183030183018C5
:103330007018600C600CE00CC006C00680038003AF
:10334000800380018001C001F000700000000000D7
:1033500000000000000000000000FC1FFC1F000C2B
:10336000000600038001C000600030001800FC1F50
:10337000FC1F000000000000000000000000000032
:1033800000038001C000C000C000C000C000C00039
:1033900060006000300060004000C000C000C0005D
:1033A000C000C000C0008001000300000000000059
:1033B0008001800180018001800180018001800105
:1033C00080018001800180018001800180018001F5
:1033D00080018001800180018001800100000000E7
:1033E0006000C000C0018001800180018001800177
:1033F000000300030006000300018001800180013A
:10340000800180018001C000600000000000000019
:103410000000000000000000000000000000F010AC
:10342000F81F080F0000000000000000000000006E
:10343000000000000000000000000000000000008C
:10344000603400080000002054000000280100083B
:10345000B434000854000020641600004401000841
:1034600000A24A0400000000000000000102030462
:10347000060708090000000001020304010203041A
:10348000060708090204060800000000000000000A
:103490000000000054000020540000200000000044
:1034A0000000FF00000000000000000028000000F5
:0434B0000000FFFF1A
:040000050800018965
:00000001FF
